:1000000012C02CC02BC02AC029C028C027C026C0BF
:1000100025C038C023C039C121C020C01FC01EC0A8
:100020001DC01CC01BC011241FBECFE5D4E0DEBF25
:10003000CDBF10E0A0E6B0E0E4E4F5E002C005903A
:100040000D92A236B107D9F710E0A2E6B0E001C0E8
:100050001D92A736B107E1F722D172C2D1CF20910C
:1000600060002F702A30D9F728B7216028BF12BE50
:10007000909366008093650080916000807F8093FC
:10008000600008951F920F920FB60F9211242F93C4
:100090003F934F935F936F937F938F939F93EF93D0
:1000A000809160008F7009F048C080916500909148
:1000B000660091FF02C0969A01C0969880916500F3
:1000C0009091660090FF02C0959A01C09598979A0A
:1000D000E5B36091650070916600409165005091B4
:1000E00066002091650030916600809165009091D6
:1000F0006600729562956F7067277F7067276870DA
:1001000074E0569547957A95E1F74C70642BE07F43
:100110006E2BE4E036952795EA95E1F72E70622B79
:1001200024E0969587952A95E1F78F70682B65BB3B
:1001300080916000807F816098C0809160008F70A6
:10014000813031F4979880916000807F82608DC00B
:10015000809160008F70823009F5979AE5B36091C5
:100160006500709166004091650050916600209195
:10017000650030916600809165009091660068701E
:100180004C70642BE07F6E2B2E70622B8F70682B6F
:1001900065BB80916000807F836067C08091600054
:1001A0008F70833031F4979880916000807F8460F5
:1001B0005CC0809160008F70843059F481B3807F7F
:1001C00081BB9698959A979A80916000807F856010
:1001D0004CC0809160008F70853059F483B383B335
:1001E00083B383B31092640080916000807F866047
:1001F0003CC0809160008F70863031F49798809178
:100200006000807F876031C0809160008F70873090
:1002100031F4979A80916000807F886026C0809139
:1002200060008F70883091F48091640093B393B331
:1002300093B393B3809360008091600080916000DD
:10024000807F896080936000979811C080916000E2
:100250008F70893061F481B38F6081BB82B38F79F5
:1002600082BB80916000807F8A6080936000EF9104
:100270009F918F917F916F915F914F913F912F91BE
:100280000F900FBE0F901F9018951F920F920FB6F0
:100290000F9211240F900FBE0F901F901895CF93BF
:1002A000DF93CDB7DEB7CA56D1400FB6F894DEBFA4
:1002B0000FBECDBF81E083BF89B7816089BF89E16F
:1002C00089B910BC86E880BD88E18AB9579A8BE469
:1002D0009DE10197F1F700C0000080EE81BB8FE047
:1002E00084BB82B38F7182BB85B3807F85BB0000E6
:1002F000979A82E085BB000097980000979A0000CB
:100300009798000080916000807F846080936000F7
:1003100078948FE090E0A3DE8CE290E0A0DE81E0B4
:1003200090E09DDE80E890E09ADE712CB12C00E038
:1003300010E040E0D12C68E2C62E79E0A72EEDE077
:100340009E2EFAE08F2E5F9BFECF5CB15C3511F4E0
:1003500041E0F9CF411129C05D3011F05A3039F434
:100360005D9BFECF9CB85D9BFECF8CB81AC0852FDD
:1003700090E09260C659DE4F4883CA56D140C759B3
:10038000DE4F5883C956D1406ADED394C759DE4F39
:100390005881C956D1405CB9C659DE4F4881CA560A
:1003A000D14097E2D912CFCF0BC0413089F55336F7
:1003B00049F481E090E053DE82E090E050DE40E0DE
:1003C000D12CC1CF573611F442E0BDCF533711F4D1
:1003D00044E0B9CF523711F446E0B5CF583711F4A5
:1003E00047E0B1CF583619F488E190E005C05C369B
:1003F00009F0A9CF8CE190E0C659DE4F4883CA5678
:10040000D1402DDEC659DE4F4881CA56D1409BCF20
:10041000423031F4052F10E0102F002743E093CF36
:10042000433091F4052BE12FE170FE2E82E090E045
:1004300016DE8F2D90E046E0880F991F4A95E1F770
:10044000800F911D80686EC0443039F4852F6A2D6D
:100450006BD0B92E712C45E076CF453051F52B2D60
:1004600030E081E0870DC29EF001C39EF00D1124A3
:10047000E70DF11D61E070E06C0F7D1FE60FF71FC7
:100480005083523020F0883211F0782E5CCFC29E1B
:10049000F001C39EF00D112421E030E02C0F3D1F30
:1004A000E20FF31FE80FF11D31971082782E40E024
:1004B0004ACF463009F58FEF850F8830C0F74424C6
:1004C0004394512C4C0E5D1EC59E400C511C1124B2
:1004D0007201F7018081882351F3970124193509AE
:1004E0002832310524F7992787FD90959260B7DD72
:1004F0003FEFE31AF30AEDCF473009F024CF503332
:1005000019F48CE090E00EC0513319F48DE090E0C6
:1005100009C0523319F48EE090E004C0533339F629
:100520008FE090E09CDDC3CF991B79E004C0991F58
:10053000961708F0961B881F7A95C9F7809508953D
:04054000F894FFCF5D
:020544000A00AB
:00000001FF
